{
  "contractName": "Voting",
  "abi": [
    {
      "constant": true,
      "inputs": [
        {
          "internalType": "uint256",
          "name": "",
          "type": "uint256"
        }
      ],
      "name": "elections",
      "outputs": [
        {
          "internalType": "address",
          "name": "chairperson",
          "type": "address"
        },
        {
          "internalType": "bool",
          "name": "ended",
          "type": "bool"
        },
        {
          "internalType": "uint256",
          "name": "endTime",
          "type": "uint256"
        }
      ],
      "payable": false,
      "stateMutability": "view",
      "type": "function"
    },
    {
      "constant": true,
      "inputs": [
        {
          "internalType": "uint256",
          "name": "_electionId",
          "type": "uint256"
        }
      ],
      "name": "isRunning",
      "outputs": [
        {
          "internalType": "bool",
          "name": "",
          "type": "bool"
        }
      ],
      "payable": false,
      "stateMutability": "view",
      "type": "function"
    },
    {
      "constant": true,
      "inputs": [
        {
          "internalType": "uint256",
          "name": "_electionId",
          "type": "uint256"
        }
      ],
      "name": "getTimeLeft",
      "outputs": [
        {
          "internalType": "uint256",
          "name": "",
          "type": "uint256"
        }
      ],
      "payable": false,
      "stateMutability": "view",
      "type": "function"
    },
    {
      "constant": true,
      "inputs": [],
      "name": "getNum",
      "outputs": [
        {
          "internalType": "uint256",
          "name": "",
          "type": "uint256"
        }
      ],
      "payable": false,
      "stateMutability": "view",
      "type": "function"
    },
    {
      "constant": true,
      "inputs": [
        {
          "internalType": "uint256",
          "name": "_electionId",
          "type": "uint256"
        }
      ],
      "name": "getNumOfCandidates",
      "outputs": [
        {
          "internalType": "uint256",
          "name": "",
          "type": "uint256"
        }
      ],
      "payable": false,
      "stateMutability": "view",
      "type": "function"
    },
    {
      "constant": true,
      "inputs": [
        {
          "internalType": "uint256",
          "name": "_electionId",
          "type": "uint256"
        },
        {
          "internalType": "uint256",
          "name": "_candidateId",
          "type": "uint256"
        }
      ],
      "name": "getCandidate",
      "outputs": [
        {
          "internalType": "bytes32",
          "name": "",
          "type": "bytes32"
        }
      ],
      "payable": false,
      "stateMutability": "view",
      "type": "function"
    },
    {
      "constant": true,
      "inputs": [
        {
          "internalType": "uint256",
          "name": "_electionId",
          "type": "uint256"
        },
        {
          "internalType": "uint256",
          "name": "_candidateId",
          "type": "uint256"
        }
      ],
      "name": "getVotes",
      "outputs": [
        {
          "internalType": "uint256",
          "name": "",
          "type": "uint256"
        }
      ],
      "payable": false,
      "stateMutability": "view",
      "type": "function"
    },
    {
      "constant": false,
      "inputs": [
        {
          "internalType": "bytes32[]",
          "name": "proposalNames",
          "type": "bytes32[]"
        },
        {
          "internalType": "uint256",
          "name": "votingTime",
          "type": "uint256"
        }
      ],
      "name": "createElection",
      "outputs": [],
      "payable": false,
      "stateMutability": "nonpayable",
      "type": "function"
    },
    {
      "constant": false,
      "inputs": [
        {
          "internalType": "uint256",
          "name": "_electionId",
          "type": "uint256"
        },
        {
          "internalType": "uint256",
          "name": "_id",
          "type": "uint256"
        }
      ],
      "name": "vote",
      "outputs": [],
      "payable": false,
      "stateMutability": "nonpayable",
      "type": "function"
    }
  ],
  "bytecode": "0x60806040526000805534801561001457600080fd5b50610793806100246000396000f3fe608060405234801561001057600080fd5b50600436106100935760003560e01c806391f366331161006657806391f36633146101c8578063980ff7af14610214578063b384abef14610256578063e8c587631461028e578063f4f04ae8146102d057610093565b8063127dbda2146100985780634bd46448146100de5780635e6fef011461012a57806367e0badb146101aa575b600080fd5b6100c4600480360360208110156100ae57600080fd5b8101908080359060200190929190505050610353565b604051808215151515815260200191505060405180910390f35b610114600480360360408110156100f457600080fd5b81019080803590602001909291908035906020019092919050505061037e565b6040518082815260200191505060405180910390f35b6101566004803603602081101561014057600080fd5b81019080803590602001909291905050506103c3565b604051808473ffffffffffffffffffffffffffffffffffffffff1673ffffffffffffffffffffffffffffffffffffffff16815260200183151515158152602001828152602001935050505060405180910390f35b6101b2610427565b6040518082815260200191505060405180910390f35b6101fe600480360360408110156101de57600080fd5b810190808035906020019092919080359060200190929190505050610430565b6040518082815260200191505060405180910390f35b6102406004803603602081101561022a57600080fd5b8101908080359060200190929190505050610475565b6040518082815260200191505060405180910390f35b61028c6004803603604081101561026c57600080fd5b8101908080359060200190929190803590602001909291905050506104a0565b005b6102ba600480360360208110156102a457600080fd5b8101908080359060200190929190505050610602565b6040518082815260200191505060405180910390f35b610351600480360360408110156102e657600080fd5b810190808035906020019064010000000081111561030357600080fd5b82018360208201111561031557600080fd5b8035906020019184602083028401116401000000008311171561033757600080fd5b90919293919293908035906020019092919050505061062c565b005b60006001828154811061036257fe5b9060005260206000209060040201600101544211159050919050565b60006001838154811061038d57fe5b906000526020600020906004020160030182815481106103a957fe5b906000526020600020906002020160000154905092915050565b600181815481106103d057fe5b90600052602060002090600402016000915090508060000160009054906101000a900473ffffffffffffffffffffffffffffffffffffffff16908060000160149054906101000a900460ff16908060010154905083565b60008054905090565b60006001838154811061043f57fe5b9060005260206000209060040201600301828154811061045b57fe5b906000526020600020906002020160010154905092915050565b60006001828154811061048457fe5b9060005260206000209060040201600301805490509050919050565b6000600183815481106104af57fe5b906000526020600020906004020190508060010154421115610539576040517f08c379a00000000000000000000000000000000000000000000000000000000081526004018080602001828103825260108152602001807f766f74696e672068617320656e6465640000000000000000000000000000000081525060200191505060405180910390fd5b60008160020160003373ffffffffffffffffffffffffffffffffffffffff1673ffffffffffffffffffffffffffffffffffffffff1681526020019081526020016000209050600082600301848154811061058f57fe5b90600052602060002090600202019050600015158260010160009054906101000a900460ff161515146105c157600080fd5b806001016000815480929190600101919050555060018260010160006101000a81548160ff0219169083151502179055508382600001819055505050505050565b6000426001838154811061061257fe5b906000526020600020906004020160010154039050919050565b6000428201905060006001600080815480929190600101919050558154811061065157fe5b90600052602060002090600402019050338160000160006101000a81548173ffffffffffffffffffffffffffffffffffffffff021916908373ffffffffffffffffffffffffffffffffffffffff16021790555060008160000160146101000a81548160ff02191690831515021790555081816001018190555060008090505b85859050811015610756578160030160405180604001604052808888858181106106f657fe5b905060200201358152602001600081525090806001815401808255809150509060018203906000526020600020906002020160009091929091909150600082015181600001556020820151816001015550505080806001019150506106d0565b50505050505056fea265627a7a72315820d7bc0aa050afe090b4a052c9b5334e746f24b867b2cf4138e5de4c3c82c58a4f64736f6c63430005100032",
  "source": "// SPDX-License-Identifier: MIT\npragma solidity >=0.4.21 <8.10.0;\n\ncontract Voting \n{\n    struct Voter {\n        uint toId;            //voted for this id default -1\n        bool voted;         //voted in this election default false\n    }\n    struct Candidate \n    {\n        bytes32 name;   \n        uint voteCount; \n    }\n    struct Election \n    {\n        address chairperson;                        //creator\n        bool ended;                                 \n        uint endTime;                               //ending time\n        mapping(address => Voter) voters;           //voters\n        Candidate[] candidates;\n    }\n\n\n    uint num = 0;           //number of elections\n    Election[] public elections;\n\n    function isRunning(uint _electionId) public view returns(bool)\n    {\n        return (block.timestamp<=elections[_electionId].endTime);\n    }\n\n    function getTimeLeft(uint _electionId) public view returns (uint)\n    {\n        return (uint(elections[_electionId].endTime) - uint(block.timestamp));\n    }\n\n    function getNum() external view returns(uint) \n    {\n        return num;\n    }\n\n    function getNumOfCandidates(uint _electionId) public view returns(uint) {\n        return elections[_electionId].candidates.length;\n    }\n\n    function getCandidate(uint _electionId, uint _candidateId) public view returns(bytes32) {\n        return elections[_electionId].candidates[_candidateId].name;\n    }\n\n    function getVotes(uint _electionId, uint _candidateId) public view returns(uint) {\n        return elections[_electionId].candidates[_candidateId].voteCount;\n    }\n\n    ////////\n    \n    function createElection(bytes32[] calldata proposalNames, uint votingTime) external\n    {\n        uint _endTime = votingTime+block.timestamp;\n\n        Election storage newElection = elections[num++];\n\n\n        newElection.chairperson = msg.sender;\n        newElection.ended = false;\n        newElection.endTime = _endTime;\n\n        for (uint i = 0; i < proposalNames.length; i++) \n        {\n                newElection.candidates.push(Candidate({\n                name: proposalNames[i],\n                voteCount: 0\n            }));\n        }\n    }\n\n    function vote(uint _electionId, uint _id) external\n    {\n        Election storage ballot = elections[_electionId];\n        if(block.timestamp>ballot.endTime)\n        {\n            revert(\"voting has ended\");\n        }\n        Voter storage sender = ballot.voters[msg.sender];\n        Candidate storage receiver = ballot.candidates[_id];\n        require(sender.voted==false);\n        receiver.voteCount++;\n        sender.voted = true;\n        sender.toId = _id;\n    }\n\n\n\n\n}",
  "sourcePath": "/Users/sohamjog/Dropbox/My Mac (soham’s MacBook Pro)/Desktop/Solidity_Learning/votingDapp/contracts/Voting.sol",
  "compiler": {
    "name": "solc",
    "version": "0.5.16+commit.9c3226ce.Emscripten.clang"
  },
  "schemaVersion": "3.4.7",
  "updatedAt": "2022-05-21T05:01:21.903Z",
  "networkType": "ethereum",
  "devdoc": {
    "methods": {}
  },
  "userdoc": {
    "methods": {
      "createElection(bytes32[],uint256)": {
        "notice": "/////"
      }
    }
  }
}