{
  "contractName": "Voting",
  "abi": [
    {
      "constant": true,
      "inputs": [
        {
          "internalType": "uint256",
          "name": "",
          "type": "uint256"
        },
        {
          "internalType": "uint256",
          "name": "",
          "type": "uint256"
        }
      ],
      "name": "candidates",
      "outputs": [
        {
          "internalType": "bytes32",
          "name": "name",
          "type": "bytes32"
        },
        {
          "internalType": "uint256",
          "name": "voteCount",
          "type": "uint256"
        }
      ],
      "payable": false,
      "stateMutability": "view",
      "type": "function"
    },
    {
      "constant": true,
      "inputs": [
        {
          "internalType": "uint256",
          "name": "",
          "type": "uint256"
        }
      ],
      "name": "elections",
      "outputs": [
        {
          "internalType": "address",
          "name": "chairperson",
          "type": "address"
        },
        {
          "internalType": "bool",
          "name": "ended",
          "type": "bool"
        },
        {
          "internalType": "uint256",
          "name": "endTime",
          "type": "uint256"
        }
      ],
      "payable": false,
      "stateMutability": "view",
      "type": "function"
    },
    {
      "constant": true,
      "inputs": [
        {
          "internalType": "uint256",
          "name": "_electionId",
          "type": "uint256"
        }
      ],
      "name": "isRunning",
      "outputs": [
        {
          "internalType": "bool",
          "name": "",
          "type": "bool"
        }
      ],
      "payable": false,
      "stateMutability": "view",
      "type": "function"
    },
    {
      "constant": true,
      "inputs": [
        {
          "internalType": "uint256",
          "name": "_electionId",
          "type": "uint256"
        }
      ],
      "name": "getTimeLeft",
      "outputs": [
        {
          "internalType": "uint256",
          "name": "",
          "type": "uint256"
        }
      ],
      "payable": false,
      "stateMutability": "view",
      "type": "function"
    },
    {
      "constant": true,
      "inputs": [],
      "name": "getNum",
      "outputs": [
        {
          "internalType": "uint256",
          "name": "",
          "type": "uint256"
        }
      ],
      "payable": false,
      "stateMutability": "view",
      "type": "function"
    },
    {
      "constant": true,
      "inputs": [
        {
          "internalType": "uint256",
          "name": "_electionId",
          "type": "uint256"
        }
      ],
      "name": "getNumOfCandidates",
      "outputs": [
        {
          "internalType": "uint256",
          "name": "",
          "type": "uint256"
        }
      ],
      "payable": false,
      "stateMutability": "view",
      "type": "function"
    },
    {
      "constant": true,
      "inputs": [
        {
          "internalType": "uint256",
          "name": "_electionId",
          "type": "uint256"
        },
        {
          "internalType": "uint256",
          "name": "_candidateId",
          "type": "uint256"
        }
      ],
      "name": "getCandidate",
      "outputs": [
        {
          "internalType": "bytes32",
          "name": "",
          "type": "bytes32"
        }
      ],
      "payable": false,
      "stateMutability": "view",
      "type": "function"
    },
    {
      "constant": true,
      "inputs": [
        {
          "internalType": "uint256",
          "name": "_electionId",
          "type": "uint256"
        },
        {
          "internalType": "uint256",
          "name": "_candidateId",
          "type": "uint256"
        }
      ],
      "name": "getVotes",
      "outputs": [
        {
          "internalType": "uint256",
          "name": "",
          "type": "uint256"
        }
      ],
      "payable": false,
      "stateMutability": "view",
      "type": "function"
    },
    {
      "constant": false,
      "inputs": [
        {
          "internalType": "bytes32[]",
          "name": "proposalNames",
          "type": "bytes32[]"
        },
        {
          "internalType": "uint256",
          "name": "votingTime",
          "type": "uint256"
        }
      ],
      "name": "createElection",
      "outputs": [],
      "payable": false,
      "stateMutability": "nonpayable",
      "type": "function"
    },
    {
      "constant": false,
      "inputs": [
        {
          "internalType": "uint256",
          "name": "_electionId",
          "type": "uint256"
        },
        {
          "internalType": "uint256",
          "name": "_id",
          "type": "uint256"
        }
      ],
      "name": "vote",
      "outputs": [],
      "payable": false,
      "stateMutability": "nonpayable",
      "type": "function"
    }
  ],
  "bytecode": "0x60806040526000620186a15534801561001757600080fd5b506108c2806100276000396000f3fe608060405234801561001057600080fd5b506004361061009e5760003560e01c806391f366331161006657806391f3663314610226578063980ff7af14610272578063b384abef146102b4578063e8c58763146102ec578063f4f04ae81461032e5761009e565b8063127dbda2146100a35780634bd46448146100e95780635e6fef011461013557806367e0badb146101b55780637de14242146101d3575b600080fd5b6100cf600480360360208110156100b957600080fd5b81019080803590602001909291905050506103b1565b604051808215151515815260200191505060405180910390f35b61011f600480360360408110156100ff57600080fd5b8101908080359060200190929190803590602001909291905050506103de565b6040518082815260200191505060405180910390f35b6101616004803603602081101561014b57600080fd5b8101908080359060200190929190505050610415565b604051808473ffffffffffffffffffffffffffffffffffffffff1673ffffffffffffffffffffffffffffffffffffffff16815260200183151515158152602001828152602001935050505060405180910390f35b6101bd61047b565b6040518082815260200191505060405180910390f35b610209600480360360408110156101e957600080fd5b810190808035906020019092919080359060200190929190505050610487565b604051808381526020018281526020019250505060405180910390f35b61025c6004803603604081101561023c57600080fd5b8101908080359060200190929190803590602001909291905050506104c7565b6040518082815260200191505060405180910390f35b61029e6004803603602081101561028857600080fd5b81019080803590602001909291905050506104fe565b6040518082815260200191505060405180910390f35b6102ea600480360360408110156102ca57600080fd5b81019080803590602001909291908035906020019092919050505061051b565b005b6103186004803603602081101561030257600080fd5b81019080803590602001909291905050506106d2565b6040518082815260200191505060405180910390f35b6103af6004803603604081101561034457600080fd5b810190808035906020019064010000000081111561036157600080fd5b82018360208201111561037357600080fd5b8035906020019184602083028401116401000000008311171561039557600080fd5b9091929391929390803590602001909291905050506106fe565b005b6000620186a282815481106103c257fe5b9060005260206000209060020201600101544211159050919050565b6000600183620186a081106103ef57fe5b0182815481106103fb57fe5b906000526020600020906002020160000154905092915050565b620186a2818154811061042457fe5b90600052602060002090600202016000915090508060000160009054906101000a900473ffffffffffffffffffffffffffffffffffffffff16908060000160149054906101000a900460ff16908060010154905083565b6000620186a154905090565b600182620186a0811061049657fe5b0181815481106104a257fe5b9060005260206000209060020201600091509150508060000154908060010154905082565b6000600183620186a081106104d857fe5b0182815481106104e457fe5b906000526020600020906002020160010154905092915050565b6000600182620186a0811061050f57fe5b01805490509050919050565b6000620186a2838154811061052c57fe5b9060005260206000209060020201905080600101544211156105b6576040517f08c379a00000000000000000000000000000000000000000000000000000000081526004018080602001828103825260108152602001807f766f74696e672068617320656e6465640000000000000000000000000000000081525060200191505060405180910390fd5b6000600184620186a081106105c757fe5b0183815481106105d357fe5b906000526020600020906002020190506000151560008086815260200190815260200160002060003373ffffffffffffffffffffffffffffffffffffffff1673ffffffffffffffffffffffffffffffffffffffff16815260200190815260200160002060009054906101000a900460ff1615151461065057600080fd5b8060010160008154809291906001019190505550600160008086815260200190815260200160002060003373ffffffffffffffffffffffffffffffffffffffff1673ffffffffffffffffffffffffffffffffffffffff16815260200190815260200160002060006101000a81548160ff02191690831515021790555050505050565b600042620186a283815481106106e457fe5b906000526020600020906002020160010154039050919050565b620186a260405180606001604052803373ffffffffffffffffffffffffffffffffffffffff1681526020016000151581526020014284018152509080600181540180825580915050906001820390600052602060002090600202016000909192909190915060008201518160000160006101000a81548173ffffffffffffffffffffffffffffffffffffffff021916908373ffffffffffffffffffffffffffffffffffffffff16021790555060208201518160000160146101000a81548160ff0219169083151502179055506040820151816001015550505060008090505b83839050811015610873576001620186a154620186a081106107fb57fe5b01604051806040016040528086868581811061081357fe5b905060200201358152602001600081525090806001815401808255809150509060018203906000526020600020906002020160009091929091909150600082015181600001556020820151816001015550505080806001019150506107dd565b50620186a16000815480929190600101919050555050505056fea265627a7a72315820d646c6ee8d8f2aec97add22420f93e15e32e09669fa06f201e408eb49c00184564736f6c63430005100032",
  "source": "// SPDX-License-Identifier: MIT\npragma solidity >=0.4.21 <8.10.0;\n\ncontract Voting \n{\n  \n    struct Candidate \n    {\n        bytes32 name;   \n        uint voteCount; \n    }\n    struct Election \n    {\n        address chairperson;                        //creator\n        bool ended;                                 \n        uint endTime;                               //ending time\n    }\n\n    mapping(uint => mapping(address => bool)) voted;\n   Candidate[][1e5] public candidates;\n   // bytes32[][] public name;\n   // uint[][] public votes;\n\n\n    uint num = 0;           //number of elections\n    Election[] public elections;\n\n    function isRunning(uint _electionId) public view returns(bool)\n    {\n        return (block.timestamp<=elections[_electionId].endTime);\n    }\n\n    function getTimeLeft(uint _electionId) public view returns (uint)\n    {\n        return (uint(elections[_electionId].endTime) - uint(block.timestamp));\n    }\n\n    function getNum() external view returns(uint) \n    {\n        return num;\n    }\n\n    function getNumOfCandidates(uint _electionId) public view returns(uint) {\n        return candidates[_electionId].length;\n        //return votes[_electionId].length;\n    }\n\n    function getCandidate(uint _electionId, uint _candidateId) public view returns(bytes32) {\n        return candidates[_electionId][_candidateId].name;\n        //return name[_electionId][_candidateId];\n    }\n\n    function getVotes(uint _electionId, uint _candidateId) public view returns(uint) {\n        return candidates[_electionId][_candidateId].voteCount;\n        //return votes[_electionId][_candidateId];\n    }\n\n    ////////\n    \n    function createElection(bytes32[] calldata proposalNames, uint votingTime) external\n    {\n        /*\n        uint _endTime = votingTime+block.timestamp;\n\n        Election storage newElection = elections[num++];\n\n\n        newElection.chairperson = msg.sender;\n        newElection.ended = false;\n        newElection.endTime = _endTime;\n\n        for (uint i = 0; i < proposalNames.length; i++) \n        {\n                newElection.candidates.push(Candidate({\n                name: proposalNames[i],\n                voteCount: 0\n            }));\n        }*/\n\n        elections.push(Election(msg.sender, false, votingTime+block.timestamp));\n\n        for (uint i = 0; i < proposalNames.length; i++) \n        {\n                candidates[num].push(Candidate({\n                name: proposalNames[i],\n                voteCount: 0\n            }));\n        }\n\n        num++;\n\n\n    }\n\n    function vote(uint _electionId, uint _id) external\n    {\n\n        Election storage ballot = elections[_electionId];\n        if(block.timestamp>ballot.endTime)\n        {\n            revert(\"voting has ended\");\n        }\n\n        Candidate storage receiver = candidates[_electionId][_id];\n        require(voted[_electionId][msg.sender]==false);\n        receiver.voteCount++;\n        voted[_electionId][msg.sender] = true;\n        \n\n    }\n\n}",
  "sourcePath": "/Users/sohamjog/Dropbox/My Mac (soham’s MacBook Pro)/Desktop/Solidity_Learning/votingDapp/contracts/Voting.sol",
  "compiler": {
    "name": "solc",
    "version": "0.5.16+commit.9c3226ce.Emscripten.clang"
  },
  "schemaVersion": "3.4.7",
  "updatedAt": "2022-05-24T09:18:22.911Z",
  "networkType": "ethereum",
  "devdoc": {
    "methods": {}
  },
  "userdoc": {
    "methods": {
      "createElection(bytes32[],uint256)": {
        "notice": "/////"
      }
    }
  }
}