{
  "contractName": "Voting",
  "abi": [
    {
      "constant": true,
      "inputs": [
        {
          "internalType": "uint256",
          "name": "",
          "type": "uint256"
        }
      ],
      "name": "elections",
      "outputs": [
        {
          "internalType": "address",
          "name": "chairperson",
          "type": "address"
        },
        {
          "internalType": "bool",
          "name": "ended",
          "type": "bool"
        },
        {
          "internalType": "uint256",
          "name": "endTime",
          "type": "uint256"
        }
      ],
      "payable": false,
      "stateMutability": "view",
      "type": "function"
    },
    {
      "constant": true,
      "inputs": [],
      "name": "getNum",
      "outputs": [
        {
          "internalType": "uint256",
          "name": "",
          "type": "uint256"
        }
      ],
      "payable": false,
      "stateMutability": "view",
      "type": "function"
    },
    {
      "constant": false,
      "inputs": [
        {
          "internalType": "bytes32[]",
          "name": "proposalNames",
          "type": "bytes32[]"
        },
        {
          "internalType": "uint256",
          "name": "votingTime",
          "type": "uint256"
        }
      ],
      "name": "createElection",
      "outputs": [],
      "payable": false,
      "stateMutability": "nonpayable",
      "type": "function"
    },
    {
      "constant": false,
      "inputs": [
        {
          "internalType": "uint256",
          "name": "_electionId",
          "type": "uint256"
        },
        {
          "internalType": "uint256",
          "name": "_id",
          "type": "uint256"
        }
      ],
      "name": "vote",
      "outputs": [],
      "payable": false,
      "stateMutability": "nonpayable",
      "type": "function"
    }
  ],
  "bytecode": "0x60806040526000805534801561001457600080fd5b506104e0806100246000396000f3fe608060405234801561001057600080fd5b506004361061004c5760003560e01c80635e6fef011461005157806367e0badb146100d1578063b384abef146100ef578063f4f04ae814610127575b600080fd5b61007d6004803603602081101561006757600080fd5b81019080803590602001909291905050506101aa565b604051808473ffffffffffffffffffffffffffffffffffffffff1673ffffffffffffffffffffffffffffffffffffffff16815260200183151515158152602001828152602001935050505060405180910390f35b6100d961020e565b6040518082815260200191505060405180910390f35b6101256004803603604081101561010557600080fd5b810190808035906020019092919080359060200190929190505050610217565b005b6101a86004803603604081101561013d57600080fd5b810190808035906020019064010000000081111561015a57600080fd5b82018360208201111561016c57600080fd5b8035906020019184602083028401116401000000008311171561018e57600080fd5b909192939192939080359060200190929190505050610379565b005b600181815481106101b757fe5b90600052602060002090600402016000915090508060000160009054906101000a900473ffffffffffffffffffffffffffffffffffffffff16908060000160149054906101000a900460ff16908060010154905083565b60008054905090565b60006001838154811061022657fe5b9060005260206000209060040201905080600101544211156102b0576040517f08c379a00000000000000000000000000000000000000000000000000000000081526004018080602001828103825260108152602001807f766f74696e672068617320656e6465640000000000000000000000000000000081525060200191505060405180910390fd5b60008160020160003373ffffffffffffffffffffffffffffffffffffffff1673ffffffffffffffffffffffffffffffffffffffff1681526020019081526020016000209050600082600301848154811061030657fe5b90600052602060002090600202019050600015158260010160009054906101000a900460ff1615151461033857600080fd5b806001016000815480929190600101919050555060018260010160006101000a81548160ff0219169083151502179055508382600001819055505050505050565b6000428201905060006001600080815480929190600101919050558154811061039e57fe5b90600052602060002090600402019050338160000160006101000a81548173ffffffffffffffffffffffffffffffffffffffff021916908373ffffffffffffffffffffffffffffffffffffffff16021790555060008160000160146101000a81548160ff02191690831515021790555081816001018190555060008090505b858590508110156104a35781600301604051806040016040528088888581811061044357fe5b9050602002013581526020016000815250908060018154018082558091505090600182039060005260206000209060020201600090919290919091506000820151816000015560208201518160010155505050808060010191505061041d565b50505050505056fea265627a7a7231582009a42cdf7267e0b1df4ca47eff8fd332f7619ea0319723432bc14ae0b0d609e564736f6c63430005100032",
  "source": "// SPDX-License-Identifier: MIT\npragma solidity >=0.4.21 <8.10.0;\n\ncontract Voting \n{\n    struct Voter {\n        uint toId;            //voted for this id default -1\n        bool voted;         //voted in this election default false\n    }\n    struct Candidate \n    {\n        bytes32 name;   \n        uint voteCount; \n    }\n    struct Election \n    {\n        address chairperson;                        //creator\n        bool ended;                                 \n        uint endTime;                               //ending time\n        mapping(address => Voter) voters;           //voters\n        Candidate[] candidates;\n    }\n\n\n    uint num = 0;           //number of elections\n    Election[] public elections;\n\n    function getNum() external view returns(uint) \n    {\n        return num;\n    }\n    \n    function createElection(bytes32[] calldata proposalNames, uint votingTime) external\n    {\n        uint _endTime = votingTime+block.timestamp;\n\n        Election storage newElection = elections[num++];\n\n\n        newElection.chairperson = msg.sender;\n        newElection.ended = false;\n        newElection.endTime = _endTime;\n\n        for (uint i = 0; i < proposalNames.length; i++) \n        {\n                newElection.candidates.push(Candidate({\n                name: proposalNames[i],\n                voteCount: 0\n            }));\n        }\n    }\n\n    function vote(uint _electionId, uint _id) external\n    {\n        Election storage ballot = elections[_electionId];\n        if(block.timestamp>ballot.endTime)\n        {\n            revert(\"voting has ended\");\n        }\n        Voter storage sender = ballot.voters[msg.sender];\n        Candidate storage receiver = ballot.candidates[_id];\n        require(sender.voted==false);\n        receiver.voteCount++;\n        sender.voted = true;\n        sender.toId = _id;\n    }\n\n\n\n\n}",
  "sourcePath": "/Users/sohamjog/Dropbox/My Mac (soham’s MacBook Pro)/Desktop/Solidity_Learning/votingDapp/contracts/Voting.sol",
  "compiler": {
    "name": "solc",
    "version": "0.5.16+commit.9c3226ce.Emscripten.clang"
  },
  "schemaVersion": "3.4.7",
  "updatedAt": "2022-05-17T11:04:52.193Z",
  "networkType": "ethereum",
  "devdoc": {
    "methods": {}
  },
  "userdoc": {
    "methods": {}
  }
}