{
  "contractName": "Voting",
  "abi": [
    {
      "constant": true,
      "inputs": [
        {
          "internalType": "uint256",
          "name": "",
          "type": "uint256"
        }
      ],
      "name": "elections",
      "outputs": [
        {
          "internalType": "address",
          "name": "chairperson",
          "type": "address"
        },
        {
          "internalType": "bool",
          "name": "ended",
          "type": "bool"
        },
        {
          "internalType": "uint256",
          "name": "endTime",
          "type": "uint256"
        }
      ],
      "payable": false,
      "stateMutability": "view",
      "type": "function"
    },
    {
      "constant": false,
      "inputs": [
        {
          "internalType": "bytes32[]",
          "name": "proposalNames",
          "type": "bytes32[]"
        },
        {
          "internalType": "uint256",
          "name": "votingTime",
          "type": "uint256"
        }
      ],
      "name": "createElection",
      "outputs": [],
      "payable": false,
      "stateMutability": "nonpayable",
      "type": "function"
    },
    {
      "constant": false,
      "inputs": [
        {
          "internalType": "uint256",
          "name": "_electionId",
          "type": "uint256"
        },
        {
          "internalType": "uint256",
          "name": "_id",
          "type": "uint256"
        }
      ],
      "name": "vote",
      "outputs": [],
      "payable": false,
      "stateMutability": "nonpayable",
      "type": "function"
    }
  ],
  "bytecode": "0x60806040526000805534801561001457600080fd5b506104ae806100246000396000f3fe608060405234801561001057600080fd5b50600436106100415760003560e01c80635e6fef0114610046578063b384abef146100c6578063f4f04ae8146100fe575b600080fd5b6100726004803603602081101561005c57600080fd5b8101908080359060200190929190505050610181565b604051808473ffffffffffffffffffffffffffffffffffffffff1673ffffffffffffffffffffffffffffffffffffffff16815260200183151515158152602001828152602001935050505060405180910390f35b6100fc600480360360408110156100dc57600080fd5b8101908080359060200190929190803590602001909291905050506101e5565b005b61017f6004803603604081101561011457600080fd5b810190808035906020019064010000000081111561013157600080fd5b82018360208201111561014357600080fd5b8035906020019184602083028401116401000000008311171561016557600080fd5b909192939192939080359060200190929190505050610347565b005b6001818154811061018e57fe5b90600052602060002090600402016000915090508060000160009054906101000a900473ffffffffffffffffffffffffffffffffffffffff16908060000160149054906101000a900460ff16908060010154905083565b6000600183815481106101f457fe5b90600052602060002090600402019050806001015442111561027e576040517f08c379a00000000000000000000000000000000000000000000000000000000081526004018080602001828103825260108152602001807f766f74696e672068617320656e6465640000000000000000000000000000000081525060200191505060405180910390fd5b60008160020160003373ffffffffffffffffffffffffffffffffffffffff1673ffffffffffffffffffffffffffffffffffffffff168152602001908152602001600020905060008260030184815481106102d457fe5b90600052602060002090600202019050600015158260010160009054906101000a900460ff1615151461030657600080fd5b806001016000815480929190600101919050555060018260010160006101000a81548160ff0219169083151502179055508382600001819055505050505050565b6000428201905060006001600080815480929190600101919050558154811061036c57fe5b90600052602060002090600402019050338160000160006101000a81548173ffffffffffffffffffffffffffffffffffffffff021916908373ffffffffffffffffffffffffffffffffffffffff16021790555060008160000160146101000a81548160ff02191690831515021790555081816001018190555060008090505b858590508110156104715781600301604051806040016040528088888581811061041157fe5b905060200201358152602001600081525090806001815401808255809150509060018203906000526020600020906002020160009091929091909150600082015181600001556020820151816001015550505080806001019150506103eb565b50505050505056fea265627a7a72315820f94d5206578ca579eac2e73d5c442e8feaa29900b1e9a1fe39dee077af912fbb64736f6c63430005100032",
  "source": "// SPDX-License-Identifier: MIT\npragma solidity >=0.4.21 <8.10.0;\n\ncontract Voting \n{\n    struct Voter {\n        uint toId;            //voted for this id default -1\n        bool voted;         //voted in this election default false\n    }\n    struct Candidate \n    {\n        bytes32 name;   \n        uint voteCount; \n    }\n    struct Election \n    {\n        address chairperson;                        //creator\n        bool ended;                                 \n        uint endTime;                               //ending time\n        mapping(address => Voter) voters;           //voters\n        Candidate[] candidates;\n    }\n\n\n    uint num = 0;           //number of elections\n    Election[] public elections;\n    \n    function createElection(bytes32[] calldata proposalNames, uint votingTime) external\n    {\n        uint _endTime = votingTime+block.timestamp;\n\n        Election storage newElection = elections[num++];\n\n\n        newElection.chairperson = msg.sender;\n        newElection.ended = false;\n        newElection.endTime = _endTime;\n\n        for (uint i = 0; i < proposalNames.length; i++) \n        {\n                newElection.candidates.push(Candidate({\n                name: proposalNames[i],\n                voteCount: 0\n            }));\n        }\n    }\n\n    function vote(uint _electionId, uint _id) external\n    {\n        Election storage ballot = elections[_electionId];\n        if(block.timestamp>ballot.endTime)\n        {\n            revert(\"voting has ended\");\n        }\n        Voter storage sender = ballot.voters[msg.sender];\n        Candidate storage receiver = ballot.candidates[_id];\n        require(sender.voted==false);\n        receiver.voteCount++;\n        sender.voted = true;\n        sender.toId = _id;\n    }\n\n\n\n\n}",
  "sourcePath": "/Users/sohamjog/Dropbox/My Mac (soham’s MacBook Pro)/Desktop/Solidity_Learning/votingDapp/contracts/Voting.sol",
  "compiler": {
    "name": "solc",
    "version": "0.5.16+commit.9c3226ce.Emscripten.clang"
  },
  "schemaVersion": "3.4.7",
  "updatedAt": "2022-05-17T03:20:22.654Z",
  "networkType": "ethereum",
  "devdoc": {
    "methods": {}
  },
  "userdoc": {
    "methods": {}
  }
}